:020000040000FA
:100000000C945D000C9485000C9485000C94850084
:100010000C9485000C9485000C9485000C9485004C
:100020000C9485000C9485000C9485000C9485003C
:100030000C9485000C9485000C9485000C9485002C
:100040000C94B5060C9485000C9483060C945D0604
:100050000C9485000C9485000C9485000C9485000C
:100060000C94FF060C9485000000000800020100BB
:100070000003040700000000000000000000000072
:10008000250028002B0000000000240027002A0083
:10009000040404040404040402020202020203032E
:1000A0000303030301020408102040800102040836
:1000B00010200102040810201E0811241FBECFEFDB
:1000C000D8E0DEBFCDBF11E0A0E0B1E0E0E4F7E1B1
:1000D00002C005900D92A237B107D9F722E0A2E73E
:1000E000B1E001C01D92A73FB207E1F710E0CDE5F6
:1000F000D0E004C02197FE010E94980BCC35D107B7
:10010000C9F70E9477080C949E0B0C94000090E0B5
:10011000FC01EC55FF4F249180579F4FFC018491C7
:10012000882399F090E0880F991FFC01EA57FF4F50
:10013000A591B491FC01E458FF4F859194918FB73C
:10014000F894EC91E22BEC938FBF089508950895F5
:10015000AF92BF92CF92DF92EF92FF920F931F93D5
:10016000CF93DF936C017B018B01040F151FEB0113
:100170005E01AE18BF08C017D10759F06991D601CA
:10018000ED91FC910190F081E02DC6010995892B3C
:1001900079F7C501DF91CF911F910F91FF90EF90FB
:1001A000DF90CF90BF90AF900895FC01538D448DA8
:1001B000252F30E0842F90E0821B930B541710F012
:1001C000CF96089501970895FC01918D828D98171F
:1001D00061F0A28DAE0FBF2FB11D5D968C91928DF7
:1001E0009F5F9F73928F90E008958FEF9FEF089528
:1001F000FC01918D828D981731F0828DE80FF11DF1
:10020000858D90E008958FEF9FEF0895FC01918D0B
:10021000228D892F90E0805C9F4F821B91098F7304
:100220009927089585E392E00E94060121E0892B39
:1002300009F420E0822F089580E090E0892B29F0D6
:100240000E94120181110C9400000895FC01A48DFC
:10025000A80FB92FB11DA35ABF4F2C91848D90E0E8
:1002600001968F739927848FA689B7892C93A089CB
:10027000B1898C91837080648C93938D848D981355
:1002800006C00288F389E02D80818F7D80830895E8
:10029000EF92FF920F931F93CF93DF93EC0181E0D6
:1002A000888F9B8D8C8D98131AC0E889F98980817D
:1002B00085FF15C09FB7F894EE89FF896083E889B0
:1002C000F98980818370806480839FBF81E090E0A2
:1002D000DF91CF911F910F91FF90EF900895F62E2F
:1002E0000B8D10E00F5F1F4F0F731127E02E8C8DC9
:1002F0008E110CC00FB607FCFACFE889F98980810E
:1003000085FFF5CFCE010E942601F1CFEB8DEC0FDA
:10031000FD2FF11DE35AFF4FF0829FB7F8940B8F2A
:10032000EA89FB8980818062CFCFCF93DF93EC0194
:10033000888D8823B9F0AA89BB89E889F9898C91CD
:1003400085FD03C0808186FD0DC00FB607FCF7CF89
:100350008C9185FFF2CF808185FFEDCFCE010E9489
:100360002601E9CFDF91CF91089590E0FC01E85993
:10037000FF4F2491FC01EC55FF4F3491FC01E057F5
:10038000FF4FE491EE23C9F0222339F0233001F12D
:10039000A8F4213019F1223029F1F0E0EE0FFF1F0F
:1003A000E458FF4FA591B4918FB7F894EC91611187
:1003B00026C030953E233C938FBF08952730A9F087
:1003C0002830C9F0243049F7809180008F7D03C028
:1003D000809180008F7780938000DFCF84B58F7706
:1003E00084BDDBCF84B58F7DFBCF8091B0008F774C
:1003F0008093B000D2CF8091B0008F7DF9CF3E2B9B
:10040000DACF3FB7F8948091BB019091BC01A091E5
:10041000BD01B091BE0126B5A89B05C02F3F19F0C4
:100420000196A11DB11D3FBFBA2FA92F982F882774
:10043000BC01CD01620F711D811D911D42E0660F4F
:10044000771F881F991F4A95D1F708958F929F9221
:10045000AF92BF92CF92DF92EF92FF924B015C017D
:100460000E9401026B017C010E9401026C197D094E
:100470008E099F09683E734081059105A8F321E02C
:10048000821A9108A108B10888EEC80E83E0D81E30
:10049000E11CF11C81149104A104B10429F7FF901F
:1004A000EF90DF90CF90BF90AF909F908F90089586
:1004B000089520919301260F3327331F21323105F0
:1004C000ECF420910B02FC0190E080E0243069F014
:1004D00082E00895A09193012191AC014D585E4FA7
:1004E000A40FB52FB11D2C930196861798F3809118
:1004F0009301680F6093930180E0089581E008956F
:1005000010920B0281E080930A021092E50161E0F3
:1005100082E10E94B50161E083E10E94B501E9EB4F
:10052000F0E080818E7F808380818D7F808388E46E
:100530008093B80085E48093BC000895CF93DF9347
:1005400091E0909372018823B9F0C091B800D091E6
:10055000BA008091BC008A7B8093BC0060E082E19D
:100560000E94B50160E083E10E94B5010E94800213
:10057000D093BA00C093B800DF91CF9108958F92C5
:100580009F92AF92BF92CF92DF92EF92FF920F9322
:100590001F93CF93DF93D0913402D13208F0D7C0AC
:1005A000182FC09133020E9401026B017C018091DF
:1005B0000B0281116BC082E080930B0210930A0240
:1005C0008FEF8093090210920802D0930702A3E1F3
:1005D000B2E0E7EEF1E080E0D81391C01092E601BE
:1005E0008091E601CC0FC82BC093E6018091E50114
:1005F000813009F088C01092E5010E9401026B0170
:100600007C018091E6018093BB0080910D02909166
:100610000E02A0910F02B0911002892B8A2B8B2B16
:10062000A1F00E94010200910D0210910E02209192
:100630000F02309110026C197D098E099F0906176F
:1006400017072807390708F442C08091BC0083FDD2
:10065000D8CF85EC8093BC000E9401026B017C0125
:1006600080910B02823009F450C0809109028F3FC3
:1006700009F46FC080910902803209F46CC0809146
:100680000902803309F469C084E026C080910D021C
:1006900090910E02A0910F02B0911002892B8A2B2B
:1006A0008B2B09F484CF0E94010280900D02909060
:1006B0000E02A0900F02B09010026C197D098E09F5
:1006C0009F0986169706A806B90608F070CF809194
:1006D0000C020E949E0285E01092120210923402D7
:1006E00010921102DF91CF911F910F91FF90EF9027
:1006F000DF90CF90BF90AF909F908F9008959D9185
:1007000091938F5F69CF85EEA5CF80910D02909177
:100710000E02A0910F02B0911002892B8A2B8B2B15
:1007200009F49ECF0E94010200910D0210910E0269
:1007300020910F02309110026C197D098E099F09DA
:10074000061717072807390708F08ACFC0CF81E0BE
:10075000C3CF80E0C1CF82E0BFCF83E0BDCF08959B
:10076000E091C4018091C301E81730F4F0E0EB534D
:10077000FE4F808190E008958FEF9FEF0895909154
:10078000C4018091C3012FEF3FEF981748F4E92F80
:10079000F0E0EB53FE4F208130E09F5F9093C40167
:1007A000C90108958091C3019091C401891B990BDF
:1007B0000895CF92DF92EF92FF920F931F93CF9302
:1007C000DF937C01CB018A0120911102222389F061
:1007D000EB016B01C40ED51ECC15DD0569F06991E6
:1007E000D701ED91FC910190F081E02DC7010995B1
:1007F000F3CF642F0E945902C801DF91CF911F915E
:100800000F91FF90EF90DF90CF900895CF93DF93FB
:100810001F92CDB7DEB76983209111022223F9F030
:1008200020913402203258F021E030E0FC01338383
:10083000228390E080E00F90DF91CF910895809126
:100840001202E82FF0E0ED5EFD4F998190838F5FFB
:10085000809312028093340281E090E0ECCF61E05B
:10086000CE0101960E945902F7CFCF93C62F9091E7
:10087000F60221E0209311029093330210921202AB
:1008800010923402682F82ED92E00E9406046C2FD1
:1008900082ED92E00E94060481E0CF910C94BF02A9
:1008A000682F82ED92E00C940604CF93DF93D62F4D
:1008B000C72F9091F60221E020931102909333020A
:1008C000109212021092340294E0899FB001112418
:1008D0006A5F7F4F82ED92E00E94060490E080E024
:1008E0000E94500490E080E00E9450048D2F9C2FC5
:1008F0000E9450048C2F90E00E94500481E0DF9110
:10090000CF910C94BF0290E080E008958F929F9267
:10091000AF92BF920F931F93CF93DF93CDB7DEB704
:10092000A1970FB6F894DEBF0FBECDBF19A242301B
:1009300008F44AE08E010F5D1F4F842E912CB12CDC
:10094000A12CA50194010E94600BE62FB901CA01F8
:10095000EA3044F5E05DD801EE938D01232B242B82
:10096000252B79F790E080E0109769F0FD01019068
:100970000020E9F73197AF014A1B5B0BBD018EEDFB
:1009800092E00E94A800A1960FB6F894DEBF0FBEB9
:10099000CDBFDF91CF911F910F91BF90AF909F90EE
:1009A0008F900895E95CD7CFFC0101900020E9F712
:1009B0003197AF01481B590BBC018EED92E00C94AE
:1009C000A800CF93DF93EC0160E08E810E94B50117
:1009D00061E08E810E94B50160E08E810E94B501C8
:1009E0008BE891E00197F1F7DF91CF910895CF92D5
:1009F000DF92EF92FF920F931F93CF93DF936C01DF
:100A00007C0187E0E80EF11CD0E0C0E0062F10E08A
:100A1000B8010C2E02C0759567950A94E2F76170D3
:100A2000F70181917F010E94B5012196C430D10563
:100A300079F7C601DF91CF911F910F91FF90EF9051
:100A4000DF90CF900C94E104CF92DF92EF92FF926F
:100A50000F931F93CF93DF93EC01F62E642F8C81BD
:100A60000E94B5018D818F3F19F060E00E94B501B1
:100A70000F2D10E08F8584FF25C06E0187E0C80E22
:100A8000D11CF12CE12CB8010E2C02C07595679594
:100A90000A94E2F76170F60181916F010E94B5013D
:100AA000FFEFEF1AFF0A88E0E816F10461F7CE01C4
:100AB000DF91CF911F910F91FF90EF90DF90CF903A
:100AC0000C94E104B80184E0759567958A95E1F787
:100AD000CE010E94F7046F2DCE01DF91CF911F91BF
:100AE0000F91FF90EF90DF90CF900C94F70440E0CF
:100AF000682F8EED92E00C942405CF93DF93823023
:100B000029F49091ED0298609093ED028093F102A8
:100B10001092F20280E48093F30280E18093F40269
:100B200080E58093F5028091E2020E948700809127
:100B3000E3028F3F11F00E9487008091E4020E943F
:100B40008700CEEDD2E09E012E5D32408091ED0215
:100B500084FD0AC084E090E02196281739073CF410
:100B60008E810E948700EFCF88E090E0F5CF8BE385
:100B70009DE00197F1F760E08091E2020E94B501EB
:100B800060E08091E4020E94B5018091E3028F3F12
:100B900019F060E00E94B5018091ED0284FD39C03A
:100BA00063E08EED92E00E94F704CBE4D6E4CE0140
:100BB0000197F1F763E08EED92E00E94F704219730
:100BC000F1F763E08EED92E00E94F70483E592E096
:100BD0000197F1F762E08EED92E00E94F7048091B8
:100BE000ED0280620E94770584E08093EE028CE043
:100BF0000E94770581E00E9477058BE39FE10197D2
:100C0000F1F782E08093EF0286E0DF91CF910C94C0
:100C1000770580620E9477058BE496E40197F1F7EF
:100C20008091ED0280620E94770583E592E0019752
:100C3000F1F78091ED0280620E947705D0CF41E00C
:100C40000E94240581E090E0089585ED8093BC002A
:100C500080910D0290910E02A0910F02B0911002AE
:100C60000796A11DB11D23E0B695A7959795879589
:100C70002A95D1F72091BC0024FD03C010920B02ED
:100C8000089540910D0250910E0260910F027091F3
:100C90001002452B462B472B69F30097A105B105A0
:100CA00041F025E32A95F1F700000197A109B10968
:100CB000E1CF80910C020C949E021F920F920FB60E
:100CC0000F9211242F933F934F935F936F937F93D2
:100CD0008F939F93AF93BF93EF93FF9385E392E03E
:100CE0000E942601FF91EF91BF91AF919F918F914B
:100CF0007F916F915F914F913F912F910F900FBE18
:100D00000F901F9018951F920F920FB60F921124FB
:100D10002F938F939F93EF93FF93E0914502F09170
:100D200046028081E0914B02F0914C0282FD1BC093
:100D3000908180914E028F5F8F7320914F028217B6
:100D400041F0E0914E02F0E0EB5CFD4F958F809317
:100D50004E02FF91EF919F918F912F910F900FBEB7
:100D60000F901F9018958081F4CF1F920F920FB6AD
:100D70000F9211242F933F938F939F93AF93BF9321
:100D80008091B7019091B801A091B901B091BA01D9
:100D90003091B60123E0230F2D3758F50196A11DA0
:100DA000B11D2093B6018093B7019093B801A09331
:100DB000B901B093BA018091BB019091BC01A0919F
:100DC000BD01B091BE010196A11DB11D8093BB0173
:100DD0009093BC01A093BD01B093BE01BF91AF91B0
:100DE0009F918F913F912F910F900FBE0F901F9069
:100DF000189526E8230F0296A11DB11DD2CF1F9290
:100E00000F920FB60F9211242F933F934F935F933E
:100E10006F937F938F939F93AF93BF93EF93FF93C2
:100E20008091B900887F803609F44AC0F0F5883295
:100E300009F4A7C018F5803109F49BC0B8F48823E1
:100E400009F4F9C0883009F494C0FF91EF91BF9183
:100E5000AF919F918F917F916F915F914F913F9152
:100E60002F910F900FBE0F901F901895883109F4A5
:100E700088C0803251F78093090214C0803409F48D
:100E80009DC040F48033B9F38833F9F680930902AA
:100E900085ECB0C0803509F485C0883509F496C06A
:100EA000883499F60E942506D0CF883909F48CC081
:100EB00038F5883729F050F4883611F0803729F654
:100EC00083E080930B021092B50157C0883809F473
:100ED0007BC0803919F0803809F0B7CF8091B50117
:100EE000803208F071C0E091B50181E08E0F8093EF
:100EF000B5018091BB00F0E0EB56FE4F80833DC012
:100F0000803B39F0E0F4803A09F479C0883A09F07E
:100F10009CCF84E080930B02109294011092930175
:100F2000E091C101F091C201099580919301811175
:100F30000FC081E0809393011092730109C0803C3F
:100F400009F4A6CF883C09F4A3CF883B09F07DCFF4
:100F5000E091940181E08E0F80939401F0E0ED58D0
:100F6000FE4F80818093BB0090919401809193010A
:100F700029C08091E6018093BB0085EC8093BC0082
:100F800064CF9091080280910702981758F5E0917C
:100F9000080281E08E0F80930802F0E0E951FE4FD5
:100FA0008081E9CFE091080281E08E0F80930802F2
:100FB0008091BB00F0E0E951FE4F808390910802E0
:100FC000809107029817C8F285E8D8CFE09108020F
:100FD00081E08E0F809308028091BB00F0E0E95120
:100FE000FE4F808380910A0281115CCF81E0809363
:100FF000E50184EA8093BC0010920B0226CF85ECB9
:101000008093BC0010920B028091B501803230F4C5
:10101000E091B501F0E0EB56FE4F10826091B50112
:1010200070E0E091BF01F091C00185E991E0099580
:101030001092B5010ACF1092090234CFE5E3F2E035
:101040001382128288EE93E0A0E0B0E0848395835F
:10105000A683B78324E031E03183208325EC30E0A0
:101060003587248724EC30E03787268720EC30E072
:10107000318B208B21EC30E0338B228B22EC30E063
:10108000358B248B26EC30E0378B268B118E128E1D
:10109000138E148EE2EDF2E0138212828483958324
:1010A000A683B78386E191E09183808380E4809377
:1010B000F602EEEDF2E01382128288E291E0918373
:1010C00080838CE084838FEF85838BE0868385E04B
:1010D000878384E0808783E0818782E0828713862C
:1010E000148615861686178681E00C947D05789403
:1010F00084B5826084BD84B5816084BD85B582601D
:1011000085BD85B5816085BD80916E0081608093CD
:101110006E00109281008091810082608093810036
:101120008091810081608093810080918000816046
:10113000809380008091B10084608093B1008091A1
:10114000B00081608093B00080917A0084608093C9
:101150007A0080917A00826080937A0080917A0090
:10116000816080937A0080917A00806880937A0011
:101170001092C1001092C4011092C3011092120289
:10118000109234020E94800286EA90E09093C2019D
:101190008093C10187EA90E09093C0018093BF01E2
:1011A00060E080E00E9435048091F60291E0909327
:1011B000110280933302109212021092340260E006
:1011C00082ED92E00E94060481E00E94BF02C0917D
:1011D000F6020E9401026B017C0180910B028111D9
:1011E00064C081E080930B0280930A029FEF90938A
:1011F000090210920802109207028093E601809182
:10120000E601CC0FC82BC093E6018091E501813047
:1012100009F026C11092E5010E9401026B017C01D8
:101220008091E6018093BB0080910D0290910E02A7
:10123000A0910F02B0911002892B8A2B8B2BA1F069
:101240000E94010280900D0290900E02A0900F0269
:10125000B09010026C197D098E099F0986169706B9
:10126000A806B90608F442C08091BC0083FDD8CF1F
:1012700085EC8093BC000E9401026B017C0180918F
:101280000B02813009F4EEC08091080281110CC17B
:1012900080910802A7EEB1E0E5ECF1E090E098174C
:1012A00051F12D9121939F5FFACF80910D02909182
:1012B0000E02A0910F02B0911002892B8A2B8B2B6A
:1012C00009F48BCF0E94010280900D0290900E02D3
:1012D000A0900F02B09010026C197D098E099F0931
:1012E00086169706A806B90608F077CF80910C02FB
:1012F0000E949E0280E01092C4018093C30182ED9F
:1013000092E00E94BF03C82F682F6F76606180E073
:101310000E94350460E78EEF0E9435046C2F80E058
:101320000E94350465E070E080E090E00E942602B3
:101330006C2F616A80E00E94350482E00E947D0586
:1013400080E391E00E94D404E0914502F0914602CE
:1013500082E08083E0914102F09142021082E091AC
:101360004302F09144028FEC808310924D02E09191
:101370004902F0914A0286E08083E0914702F091B1
:101380004802808180618083E0914702F0914802A9
:10139000808188608083E0914702F09148028081DB
:1013A00080688083E0914702F091480280818F7DC0
:1013B000808384EB882E912CA12CB12CC0E0D0E04E
:1013C000E091F102E23008F071C0E150F0E0E25249
:1013D000FD4F848980680E94770585E392E00E9432
:1013E00006010297D4F385E392E00E9406011816E5
:1013F00019060CF0B0C085E392E00E94E4007C0185
:1014000085E392E00E94E400DC0183E0E816F10449
:1014100009F4CCC00CF04CC081E0E816F10409F4EA
:1014200073C082E0E816F10409F4A0C06D01BB0F9F
:10143000EE08FF084AE0C701B601F7FE0EC041E022
:101440006DE28EED92E00E94240566277727CB019E
:101450006C197D098E099F094AE00E94860475C0B7
:1014600085EE07CF80910D0290910E02A0910F02A0
:10147000B0911002892B8A2B8B2B09F400CF0E948C
:10148000010280900D0290900E02A0900F02B09089
:1014900010026C197D098E099F0986169706A80609
:1014A000B90608F0ECCE22CF81E0F4CEE1E08ECF99
:1014B00085E0E816F10409F4B9C00CF497C086E0A1
:1014C000E816F10409F0B2CF29E630E00E94910B52
:1014D000A50194010E94360B235D3F4F4F4F5F4F94
:1014E000A1E8B1E00E94550BA50194010E94360BC2
:1014F000CA01B90163587F4F8F4F9F4F85E00E940B
:1015000055048BE691E01FC029E630E00E94910B64
:10151000A50194010E94360B235D3F4F4F4F5F4F53
:10152000A1E8B1E00E94550BA50194010E94360B81
:10153000CA01B90163587F4F8F4F9F4F80E00E94CF
:10154000550480E491E00E94D4046FE070E080E0F4
:1015500090E00E942602209709F432CF0E941201E7
:10156000882309F42DCF0E9400002ACF29E630E01D
:101570000E94910BA50194010E94360B235D3F4F01
:101580004F4F5F4FA1E8B1E00E94550BA5019401B8
:101590000E94360BCA01B90163587F4F8F4F9F4F8E
:1015A00081E00E94550485E491E0CDCF29E630E04A
:1015B0000E94910BA50194010E94360B235D3F4FC1
:1015C0004F4F5F4FA1E8B1E00E94550BA501940178
:1015D0000E94360BCA01B90163587F4F8F4F9F4F4E
:1015E00082E00E94550481E591E0ADCF29E630E02C
:1015F0000E94910BA50194010E94360B235D3F4F81
:101600004F4F5F4FA1E8B1E00E94550BA501940137
:101610000E94360BCA01B90163587F4F8F4F9F4F0D
:1016200083E00E9455048CE591E08DCF29E630E0FF
:101630000E94910BA50194010E94360B235D3F4F40
:101640004F4F5F4FA1E8B1E00E94550BA5019401F7
:101650000E94360BCA01B90163587F4F8F4F9F4FCD
:1016600084E00E94550482E691E06DCF052E97FB41
:101670001EF400940E944D0B57FD07D00E94600B92
:1016800007FC03D04EF40C944D0B509540953095CB
:1016900021953F4F4F4F5F4F0895909580957095DE
:1016A00061957F4F8F4F9F4F08950E94820BA59F9A
:1016B000900DB49F900DA49F800D911D112408954D
:1016C000A1E21A2EAA1BBB1BFD010DC0AA1FBB1F46
:1016D000EE1FFF1FA217B307E407F50720F0A21BB8
:1016E000B30BE40BF50B661F771F881F991F1A9425
:1016F00069F760957095809590959B01AC01BD014F
:10170000CF010895A29FB001B39FC001A39F700DA8
:10171000811D1124911DB29F700D811D1124911DF9
:1017200008950E94820BB7FF0895821B930B0895C2
:10173000EE0FFF1F0590F491E02D0994F894FFCF70
:10174000000000004801A800D50095010601E40052
:10175000F800000000000604D9038304AF03D2039D
:10176000BF03B003000000001F06A8008304580256
:10177000536572766F20426C7565746F6F74680084
:101780004772697000577269737420506974636896
:1017900000577269737420526F6C6C00456C626FF5
:1017A000770053686F756C64657200576169737474
:0217B000000037
:107E0000112484B714BE81FFF0D085E080938100F7
:107E100082E08093C00088E18093C10086E0809377
:107E2000C20080E18093C4008EE0C9D0259A86E02C
:107E300020E33CEF91E0309385002093840096BBD3
:107E4000B09BFECF1D9AA8958150A9F7CC24DD24C4
:107E500088248394B5E0AB2EA1E19A2EF3E0BF2EE7
:107E6000A2D0813461F49FD0082FAFD0023811F036
:107E7000013811F484E001C083E08DD089C08234E0
:107E800011F484E103C0853419F485E0A6D080C0E4
:107E9000853579F488D0E82EFF2485D0082F10E0AE
:107EA000102F00270E291F29000F111F8ED06801E7
:107EB0006FC0863521F484E090D080E0DECF843638
:107EC00009F040C070D06FD0082F6DD080E0C81688
:107ED00080E7D80618F4F601B7BEE895C0E0D1E017
:107EE00062D089930C17E1F7F0E0CF16F0E7DF06D8
:107EF00018F0F601B7BEE89568D007B600FCFDCFD4
:107F0000A601A0E0B1E02C9130E011968C91119780
:107F100090E0982F8827822B932B1296FA010C0160
:107F200087BEE89511244E5F5F4FF1E0A038BF0790
:107F300051F7F601A7BEE89507B600FCFDCF97BE46
:107F4000E89526C08437B1F42ED02DD0F82E2BD052
:107F50003CD0F601EF2C8F010F5F1F4F84911BD097
:107F6000EA94F801C1F70894C11CD11CFA94CF0C13
:107F7000D11C0EC0853739F428D08EE10CD085E9AC
:107F80000AD08FE07ACF813511F488E018D01DD067
:107F900080E101D065CF982F8091C00085FFFCCF94
:107FA0009093C60008958091C00087FFFCCF809118
:107FB000C00084FD01C0A8958091C6000895E0E648
:107FC000F0E098E1908380830895EDDF803219F02E
:107FD00088E0F5DFFFCF84E1DECF1F93182FE3DFCA
:107FE0001150E9F7F2DF1F91089580E0E8DFEE27F6
:047FF000FF270994CA
:027FFE00040479
:00000001FF
